{
  "contractName": "EncryptedToken",
  "abi": [
    {
      "inputs": [],
      "payable": false,
      "stateMutability": "nonpayable",
      "type": "constructor"
    },
    {
      "constant": false,
      "inputs": [
        {
          "internalType": "address",
          "name": "_to",
          "type": "address"
        },
        {
          "internalType": "uint256",
          "name": "_amount",
          "type": "uint256"
        }
      ],
      "name": "transfer",
      "outputs": [],
      "payable": false,
      "stateMutability": "nonpayable",
      "type": "function"
    },
    {
      "constant": true,
      "inputs": [
        {
          "internalType": "address",
          "name": "_owner",
          "type": "address"
        }
      ],
      "name": "balanceOf",
      "outputs": [
        {
          "internalType": "uint256",
          "name": "",
          "type": "uint256"
        }
      ],
      "payable": false,
      "stateMutability": "view",
      "type": "function"
    }
  ],
  "bytecode": "0x6080604052620a2c2a60005534801561001757600080fd5b50600054600160003373ffffffffffffffffffffffffffffffffffffffff1673ffffffffffffffffffffffffffffffffffffffff168152602001908152602001600020819055506102468061006d6000396000f3fe608060405234801561001057600080fd5b50600436106100365760003560e01c806370a082311461003b578063a9059cbb14610093575b600080fd5b61007d6004803603602081101561005157600080fd5b81019080803573ffffffffffffffffffffffffffffffffffffffff1690602001909291905050506100e1565b6040518082815260200191505060405180910390f35b6100df600480360360408110156100a957600080fd5b81019080803573ffffffffffffffffffffffffffffffffffffffff1690602001909291908035906020019092919050505061012a565b005b6000600160008373ffffffffffffffffffffffffffffffffffffffff1673ffffffffffffffffffffffffffffffffffffffff168152602001908152602001600020549050919050565b80600160003373ffffffffffffffffffffffffffffffffffffffff1673ffffffffffffffffffffffffffffffffffffffff16815260200190815260200160002054101561017357fe5b80600160003373ffffffffffffffffffffffffffffffffffffffff1673ffffffffffffffffffffffffffffffffffffffff1681526020019081526020016000206000828254039250508190555080600160008473ffffffffffffffffffffffffffffffffffffffff1673ffffffffffffffffffffffffffffffffffffffff16815260200190815260200160002060008282540192505081905550505056fea265627a7a723158203c5e5927fd2a9315b3019e41bd7234ac18a19dd55c4ef9ac3ec563425315947364736f6c63430005100032",
  "source": "pragma solidity >= 0.5.0 < 0.7.0;\n\ncontract EncryptedToken {\n  uint256 INITIAL_SUPPLY = 666666;//货币总量\n  mapping(address => uint256) balances;//键值对变量  用来存储钱包地址\n  //下面这行函数暂时不清楚是干什么的，将货币总量传递？\n  constructor() public {\n        balances[msg.sender] = INITIAL_SUPPLY;\n    }\n  // 转账到一个指定的地址  指定的地点\n  function transfer(address _to, uint256 _amount) public {\n    assert(balances[msg.sender] >= _amount);\n    balances[msg.sender] -= _amount;\n    balances[_to] += _amount;\n  }\n  // 查看指定地址的余额\n  function balanceOf(address _owner) public view returns (uint256) {\n    return balances[_owner];\n  }\n}\n\n",
  "sourcePath": "E:\\geth\\finalwork\\contracts\\EncryptedToken.sol",
  "compiler": {
    "name": "solc",
    "version": "0.5.16+commit.9c3226ce.Emscripten.clang"
  },
  "schemaVersion": "3.1.0",
  "updatedAt": "2020-04-14T08:42:45.399Z",
  "networkType": "ethereum",
  "devdoc": {
    "methods": {}
  },
  "userdoc": {
    "methods": {}
  }
}